{
  "contractName": "ZombieFactory",
  "abi": [
    {
      "constant": true,
      "inputs": [
        {
          "name": "",
          "type": "uint256"
        }
      ],
      "name": "zombies",
      "outputs": [
        {
          "name": "name",
          "type": "string"
        },
        {
          "name": "dna",
          "type": "uint256"
        },
        {
          "name": "level",
          "type": "uint32"
        },
        {
          "name": "readyTime",
          "type": "uint32"
        },
        {
          "name": "winCount",
          "type": "uint16"
        },
        {
          "name": "lossCount",
          "type": "uint16"
        }
      ],
      "payable": false,
      "stateMutability": "view",
      "type": "function"
    },
    {
      "constant": true,
      "inputs": [
        {
          "name": "",
          "type": "uint256"
        }
      ],
      "name": "zombieToOwner",
      "outputs": [
        {
          "name": "",
          "type": "address"
        }
      ],
      "payable": false,
      "stateMutability": "view",
      "type": "function"
    },
    {
      "constant": true,
      "inputs": [],
      "name": "owner",
      "outputs": [
        {
          "name": "",
          "type": "address"
        }
      ],
      "payable": false,
      "stateMutability": "view",
      "type": "function"
    },
    {
      "constant": false,
      "inputs": [
        {
          "name": "newOwner",
          "type": "address"
        }
      ],
      "name": "transferOwnership",
      "outputs": [],
      "payable": false,
      "stateMutability": "nonpayable",
      "type": "function"
    },
    {
      "anonymous": false,
      "inputs": [
        {
          "indexed": false,
          "name": "zombieId",
          "type": "uint256"
        },
        {
          "indexed": false,
          "name": "name",
          "type": "string"
        },
        {
          "indexed": false,
          "name": "dna",
          "type": "uint256"
        }
      ],
      "name": "NewZombie",
      "type": "event"
    },
    {
      "anonymous": false,
      "inputs": [
        {
          "indexed": true,
          "name": "previousOwner",
          "type": "address"
        },
        {
          "indexed": true,
          "name": "newOwner",
          "type": "address"
        }
      ],
      "name": "OwnershipTransferred",
      "type": "event"
    },
    {
      "constant": false,
      "inputs": [
        {
          "name": "_name",
          "type": "string"
        }
      ],
      "name": "createRandomZombie",
      "outputs": [],
      "payable": false,
      "stateMutability": "nonpayable",
      "type": "function"
    }
  ],
  "bytecode": "0x60606040526010600155600154600a0a60025562015180600355336000806101000a81548173ffffffffffffffffffffffffffffffffffffffff021916908373ffffffffffffffffffffffffffffffffffffffff160217905550610ad0806100686000396000f30060606040526004361061006d576000357c0100000000000000000000000000000000000000000000000000000000900463ffffffff1680632052465e14610072578063528b7b8f146101595780637bff0a01146101bc5780638da5cb5b14610219578063f2fde38b1461026e575b600080fd5b341561007d57600080fd5b61009360048080359060200190919050506102a7565b60405180806020018781526020018663ffffffff1663ffffffff1681526020018563ffffffff1663ffffffff1681526020018461ffff1661ffff1681526020018361ffff1661ffff168152602001828103825288818151815260200191508051906020019080838360005b838110156101195780820151818401526020810190506100fe565b50505050905090810190601f1680156101465780820380516001836020036101000a031916815260200191505b5097505050505050505060405180910390f35b341561016457600080fd5b61017a60048080359060200190919050506103c6565b604051808273ffffffffffffffffffffffffffffffffffffffff1673ffffffffffffffffffffffffffffffffffffffff16815260200191505060405180910390f35b34156101c757600080fd5b610217600480803590602001908201803590602001908080601f016020809104026020016040519081016040528093929190818152602001838380828437820191505050505050919050506103f9565b005b341561022457600080fd5b61022c610472565b604051808273ffffffffffffffffffffffffffffffffffffffff1673ffffffffffffffffffffffffffffffffffffffff16815260200191505060405180910390f35b341561027957600080fd5b6102a5600480803573ffffffffffffffffffffffffffffffffffffffff16906020019091905050610497565b005b6004818154811015156102b657fe5b9060005260206000209060030201600091509050806000018054600181600116156101000203166002900480601f0160208091040260200160405190810160405280929190818152602001828054600181600116156101000203166002900480156103625780601f1061033757610100808354040283529160200191610362565b820191906000526020600020905b81548152906001019060200180831161034557829003601f168201915b5050505050908060010154908060020160009054906101000a900463ffffffff16908060020160049054906101000a900463ffffffff16908060020160089054906101000a900461ffff169080600201600a9054906101000a900461ffff16905086565b60056020528060005260406000206000915054906101000a900473ffffffffffffffffffffffffffffffffffffffff1681565b600080600660003373ffffffffffffffffffffffffffffffffffffffff1673ffffffffffffffffffffffffffffffffffffffff1681526020019081526020016000205414151561044857600080fd5b610451826105ec565b905060648181151561045f57fe5b068103905061046e828261066e565b5050565b6000809054906101000a900473ffffffffffffffffffffffffffffffffffffffff1681565b6000809054906101000a900473ffffffffffffffffffffffffffffffffffffffff1673ffffffffffffffffffffffffffffffffffffffff163373ffffffffffffffffffffffffffffffffffffffff161415156104f257600080fd5b600073ffffffffffffffffffffffffffffffffffffffff168173ffffffffffffffffffffffffffffffffffffffff161415151561052e57600080fd5b8073ffffffffffffffffffffffffffffffffffffffff166000809054906101000a900473ffffffffffffffffffffffffffffffffffffffff1673ffffffffffffffffffffffffffffffffffffffff167f8be0079c531659141344cd1fd0a4f28419497f9722a3daafe3b4186f6b6457e060405160405180910390a3806000806101000a81548173ffffffffffffffffffffffffffffffffffffffff021916908373ffffffffffffffffffffffffffffffffffffffff16021790555050565b600080826040518082805190602001908083835b6020831015156106255780518252602082019150602081019050602083039250610600565b6001836020036101000a03801982511681845116808217855250505050505090500191505060405180910390206001900490506002548181151561066557fe5b06915050919050565b600060016004805480600101828161068691906108f6565b9160005260206000209060030201600060c060405190810160405280888152602001878152602001600163ffffffff168152602001600354420163ffffffff168152602001600061ffff168152602001600061ffff1681525090919091506000820151816000019080519060200190610700929190610928565b506020820151816001015560408201518160020160006101000a81548163ffffffff021916908363ffffffff16021790555060608201518160020160046101000a81548163ffffffff021916908363ffffffff16021790555060808201518160020160086101000a81548161ffff021916908361ffff16021790555060a082015181600201600a6101000a81548161ffff021916908361ffff1602179055505050039050336005600083815260200190815260200160002060006101000a81548173ffffffffffffffffffffffffffffffffffffffff021916908373ffffffffffffffffffffffffffffffffffffffff160217905550600660003373ffffffffffffffffffffffffffffffffffffffff1673ffffffffffffffffffffffffffffffffffffffff168152602001908152602001600020600081548092919060010191905055507f88f026aacbbecc90c18411df4b1185fd8d9be2470f1962f192bf84a27d0704b78184846040518084815260200180602001838152602001828103825284818151815260200191508051906020019080838360005b838110156108b557808201518184015260208101905061089a565b50505050905090810190601f1680156108e25780820380516001836020036101000a031916815260200191505b5094505050505060405180910390a1505050565b8154818355818115116109235760030281600302836000526020600020918201910161092291906109a8565b5b505050565b828054600181600116156101000203166002900490600052602060002090601f016020900481019282601f1061096957805160ff1916838001178555610997565b82800160010185558215610997579182015b8281111561099657825182559160200191906001019061097b565b5b5090506109a49190610a37565b5090565b610a3491905b80821115610a3057600080820160006109c79190610a5c565b60018201600090556002820160006101000a81549063ffffffff02191690556002820160046101000a81549063ffffffff02191690556002820160086101000a81549061ffff021916905560028201600a6101000a81549061ffff0219169055506003016109ae565b5090565b90565b610a5991905b80821115610a55576000816000905550600101610a3d565b5090565b90565b50805460018160011615610100020316600290046000825580601f10610a825750610aa1565b601f016020900490600052602060002090810190610aa09190610a37565b5b505600a165627a7a7230582067a3a57b7d10c4f1266d9498484aa27e98fc3155040b0f7fa2ae8b7817e40e300029",
  "source": "pragma solidity ^0.4.19;\n\nimport \"./ownable.sol\";\nimport \"./safemath.sol\";\n\ncontract ZombieFactory is Ownable {\n\n  using SafeMath for uint256;\n\n  event NewZombie(uint zombieId, string name, uint dna);\n\n  uint dnaDigits = 16;\n  uint dnaModulus = 10 ** dnaDigits;\n  uint cooldownTime = 1 days;\n\n  struct Zombie {\n    string name;\n    uint dna;\n    uint32 level;\n    uint32 readyTime;\n    uint16 winCount;\n    uint16 lossCount;\n  }\n\n  Zombie[] public zombies;\n\n  mapping (uint => address) public zombieToOwner;\n  mapping (address => uint) ownerZombieCount;\n\n  function _createZombie(string _name, uint _dna) internal {\n    uint id = zombies.push(Zombie(_name, _dna, 1, uint32(now + cooldownTime), 0, 0)) - 1;\n    zombieToOwner[id] = msg.sender;\n    ownerZombieCount[msg.sender]++;\n    emit NewZombie(id, _name, _dna);\n  }\n\n  function _generateRandomDna(string _str) private view returns (uint) {\n    uint rand = uint(keccak256(_str));\n    return rand % dnaModulus;\n  }\n\n  function createRandomZombie(string _name) public {\n    require(ownerZombieCount[msg.sender] == 0);\n    uint randDna = _generateRandomDna(_name);\n    randDna = randDna - randDna % 100;\n    _createZombie(_name, randDna);\n  }\n\n}\n",
  "sourcePath": "/Users/blake/Documents/Development/ethereum/cryptoZombiesOriginal/contracts/zombiefactory.sol",
  "compiler": {
    "name": "solc",
    "version": "0.4.21+commit.dfe3193c.Emscripten.clang"
  },
  "schemaVersion": "2.0.0",
  "updatedAt": "2018-04-19T20:33:23.886Z"
}