{
  "contractName": "ZombieAttack",
  "abi": [
    {
      "constant": false,
      "inputs": [
        {
          "name": "_zombieId",
          "type": "uint256"
        }
      ],
      "name": "levelUp",
      "outputs": [],
      "payable": true,
      "stateMutability": "payable",
      "type": "function"
    },
    {
      "constant": false,
      "inputs": [
        {
          "name": "_zombieId",
          "type": "uint256"
        },
        {
          "name": "_kittyId",
          "type": "uint256"
        }
      ],
      "name": "feedOnKitty",
      "outputs": [],
      "payable": false,
      "stateMutability": "nonpayable",
      "type": "function"
    },
    {
      "constant": true,
      "inputs": [
        {
          "name": "",
          "type": "uint256"
        }
      ],
      "name": "zombies",
      "outputs": [
        {
          "name": "name",
          "type": "string"
        },
        {
          "name": "dna",
          "type": "uint256"
        },
        {
          "name": "level",
          "type": "uint32"
        },
        {
          "name": "readyTime",
          "type": "uint32"
        },
        {
          "name": "winCount",
          "type": "uint16"
        },
        {
          "name": "lossCount",
          "type": "uint16"
        }
      ],
      "payable": false,
      "stateMutability": "view",
      "type": "function"
    },
    {
      "constant": false,
      "inputs": [],
      "name": "withdraw",
      "outputs": [],
      "payable": false,
      "stateMutability": "nonpayable",
      "type": "function"
    },
    {
      "constant": true,
      "inputs": [
        {
          "name": "_owner",
          "type": "address"
        }
      ],
      "name": "getZombiesByOwner",
      "outputs": [
        {
          "name": "",
          "type": "uint256[]"
        }
      ],
      "payable": false,
      "stateMutability": "view",
      "type": "function"
    },
    {
      "constant": true,
      "inputs": [
        {
          "name": "",
          "type": "uint256"
        }
      ],
      "name": "zombieToOwner",
      "outputs": [
        {
          "name": "",
          "type": "address"
        }
      ],
      "payable": false,
      "stateMutability": "view",
      "type": "function"
    },
    {
      "constant": false,
      "inputs": [
        {
          "name": "_address",
          "type": "address"
        }
      ],
      "name": "setKittyContractAddress",
      "outputs": [],
      "payable": false,
      "stateMutability": "nonpayable",
      "type": "function"
    },
    {
      "constant": false,
      "inputs": [
        {
          "name": "_zombieId",
          "type": "uint256"
        },
        {
          "name": "_newDna",
          "type": "uint256"
        }
      ],
      "name": "changeDna",
      "outputs": [],
      "payable": false,
      "stateMutability": "nonpayable",
      "type": "function"
    },
    {
      "constant": false,
      "inputs": [
        {
          "name": "_name",
          "type": "string"
        }
      ],
      "name": "createRandomZombie",
      "outputs": [],
      "payable": false,
      "stateMutability": "nonpayable",
      "type": "function"
    },
    {
      "constant": true,
      "inputs": [],
      "name": "owner",
      "outputs": [
        {
          "name": "",
          "type": "address"
        }
      ],
      "payable": false,
      "stateMutability": "view",
      "type": "function"
    },
    {
      "constant": false,
      "inputs": [
        {
          "name": "_zombieId",
          "type": "uint256"
        },
        {
          "name": "_newName",
          "type": "string"
        }
      ],
      "name": "changeName",
      "outputs": [],
      "payable": false,
      "stateMutability": "nonpayable",
      "type": "function"
    },
    {
      "constant": false,
      "inputs": [
        {
          "name": "_fee",
          "type": "uint256"
        }
      ],
      "name": "setLevelUpFee",
      "outputs": [],
      "payable": false,
      "stateMutability": "nonpayable",
      "type": "function"
    },
    {
      "constant": false,
      "inputs": [
        {
          "name": "newOwner",
          "type": "address"
        }
      ],
      "name": "transferOwnership",
      "outputs": [],
      "payable": false,
      "stateMutability": "nonpayable",
      "type": "function"
    },
    {
      "anonymous": false,
      "inputs": [
        {
          "indexed": false,
          "name": "zombieId",
          "type": "uint256"
        },
        {
          "indexed": false,
          "name": "name",
          "type": "string"
        },
        {
          "indexed": false,
          "name": "dna",
          "type": "uint256"
        }
      ],
      "name": "NewZombie",
      "type": "event"
    },
    {
      "anonymous": false,
      "inputs": [
        {
          "indexed": true,
          "name": "previousOwner",
          "type": "address"
        },
        {
          "indexed": true,
          "name": "newOwner",
          "type": "address"
        }
      ],
      "name": "OwnershipTransferred",
      "type": "event"
    },
    {
      "constant": false,
      "inputs": [
        {
          "name": "_zombieId",
          "type": "uint256"
        },
        {
          "name": "_targetId",
          "type": "uint256"
        }
      ],
      "name": "attack",
      "outputs": [],
      "payable": false,
      "stateMutability": "nonpayable",
      "type": "function"
    }
  ],
  "bytecode": "0x60606040526010600155600154600a0a6002556201518060035566038d7ea4c6800060085560006009556046600a55336000806101000a81548173ffffffffffffffffffffffffffffffffffffffff021916908373ffffffffffffffffffffffffffffffffffffffff1602179055507306012c8cf97bead5deae237070f9587f8e7a266d600760006101000a81548173ffffffffffffffffffffffffffffffffffffffff021916908373ffffffffffffffffffffffffffffffffffffffff16021790555061192a806100d26000396000f3006060604052600436106100d0576000357c0100000000000000000000000000000000000000000000000000000000900463ffffffff1680630ce90ec2146100d557806317a7f4cc146100ed5780632052465e146101195780633ccfd60b146102005780634412e10414610215578063528b7b8f146102a35780635f4623f1146103065780635faf28801461033f5780637bff0a011461036b5780638da5cb5b146103c8578063c39cbef11461041d578063ccf670f814610454578063e1fa763814610477578063f2fde38b146104a3575b600080fd5b6100eb60048080359060200190919050506104dc565b005b34156100f857600080fd5b6101176004808035906020019091908035906020019091905050610548565b005b341561012457600080fd5b61013a60048080359060200190919050506106a7565b60405180806020018781526020018663ffffffff1663ffffffff1681526020018563ffffffff1663ffffffff1681526020018461ffff1661ffff1681526020018361ffff1661ffff168152602001828103825288818151815260200191508051906020019080838360005b838110156101c05780820151818401526020810190506101a5565b50505050905090810190601f1680156101ed5780820380516001836020036101000a031916815260200191505b5097505050505050505060405180910390f35b341561020b57600080fd5b6102136107c6565b005b341561022057600080fd5b61024c600480803573ffffffffffffffffffffffffffffffffffffffff1690602001909190505061089b565b6040518080602001828103825283818151815260200191508051906020019060200280838360005b8381101561028f578082015181840152602081019050610274565b505050509050019250505060405180910390f35b34156102ae57600080fd5b6102c460048080359060200190919050506109c9565b604051808273ffffffffffffffffffffffffffffffffffffffff1673ffffffffffffffffffffffffffffffffffffffff16815260200191505060405180910390f35b341561031157600080fd5b61033d600480803573ffffffffffffffffffffffffffffffffffffffff169060200190919050506109fc565b005b341561034a57600080fd5b6103696004808035906020019091908035906020019091905050610a9b565b005b341561037657600080fd5b6103c6600480803590602001908201803590602001908080601f01602080910402602001604051908101604052809392919081815260200183838082843782019150505050505091905050610b7d565b005b34156103d357600080fd5b6103db610bf6565b604051808273ffffffffffffffffffffffffffffffffffffffff1673ffffffffffffffffffffffffffffffffffffffff16815260200191505060405180910390f35b341561042857600080fd5b61045260048080359060200190919080359060200190820180359060200191909192905050610c1b565b005b341561045f57600080fd5b6104756004808035906020019091905050610d09565b005b341561048257600080fd5b6104a16004808035906020019091908035906020019091905050610d6e565b005b34156104ae57600080fd5b6104da600480803573ffffffffffffffffffffffffffffffffffffffff16906020019091905050610faa565b005b600854341415156104ec57600080fd5b6004818154811015156104fb57fe5b9060005260206000209060030201600201600081819054906101000a900463ffffffff168092919060010191906101000a81548163ffffffff021916908363ffffffff1602179055505050565b6000600760009054906101000a900473ffffffffffffffffffffffffffffffffffffffff1673ffffffffffffffffffffffffffffffffffffffff1663e98b7f4d836040518263ffffffff167c01000000000000000000000000000000000000000000000000000000000281526004018082815260200191505061014060405180830381600087803b15156105db57600080fd5b5af115156105e857600080fd5b50505060405180519060200180519060200180519060200180519060200180519060200180519060200180519060200180519060200180519060200180519050909192939495969798509091929394959697509091929394959650909192939495509091929394509091929350909192509091509050809150506106a283826040805190810160405280600581526020017f6b697474790000000000000000000000000000000000000000000000000000008152506110ff565b505050565b6004818154811015156106b657fe5b9060005260206000209060030201600091509050806000018054600181600116156101000203166002900480601f0160208091040260200160405190810160405280929190818152602001828054600181600116156101000203166002900480156107625780601f1061073757610100808354040283529160200191610762565b820191906000526020600020905b81548152906001019060200180831161074557829003601f168201915b5050505050908060010154908060020160009054906101000a900463ffffffff16908060020160049054906101000a900463ffffffff16908060020160089054906101000a900461ffff169080600201600a9054906101000a900461ffff16905086565b6000809054906101000a900473ffffffffffffffffffffffffffffffffffffffff1673ffffffffffffffffffffffffffffffffffffffff163373ffffffffffffffffffffffffffffffffffffffff1614151561082157600080fd5b6000809054906101000a900473ffffffffffffffffffffffffffffffffffffffff1673ffffffffffffffffffffffffffffffffffffffff166108fc3073ffffffffffffffffffffffffffffffffffffffff16319081150290604051600060405180830381858888f19350505050151561089957600080fd5b565b6108a36116bc565b6108ab6116bc565b600080600660008673ffffffffffffffffffffffffffffffffffffffff1673ffffffffffffffffffffffffffffffffffffffff168152602001908152602001600020546040518059106108fb5750595b9080825280602002602001820160405250925060009150600090505b6004805490508110156109be578473ffffffffffffffffffffffffffffffffffffffff166005600083815260200190815260200160002060009054906101000a900473ffffffffffffffffffffffffffffffffffffffff1673ffffffffffffffffffffffffffffffffffffffff1614156109b15780838381518110151561099a57fe5b906020019060200201818152505081806001019250505b8080600101915050610917565b829350505050919050565b60056020528060005260406000206000915054906101000a900473ffffffffffffffffffffffffffffffffffffffff1681565b6000809054906101000a900473ffffffffffffffffffffffffffffffffffffffff1673ffffffffffffffffffffffffffffffffffffffff163373ffffffffffffffffffffffffffffffffffffffff16141515610a5757600080fd5b80600760006101000a81548173ffffffffffffffffffffffffffffffffffffffff021916908373ffffffffffffffffffffffffffffffffffffffff16021790555050565b60148281600482815481101515610aae57fe5b906000526020600020906003020160020160009054906101000a900463ffffffff1663ffffffff1610151515610ae357600080fd5b836005600082815260200190815260200160002060009054906101000a900473ffffffffffffffffffffffffffffffffffffffff1673ffffffffffffffffffffffffffffffffffffffff163373ffffffffffffffffffffffffffffffffffffffff16141515610b5157600080fd5b83600486815481101515610b6157fe5b9060005260206000209060030201600101819055505050505050565b600080600660003373ffffffffffffffffffffffffffffffffffffffff1673ffffffffffffffffffffffffffffffffffffffff16815260200190815260200160002054141515610bcc57600080fd5b610bd5826112d4565b9050606481811515610be357fe5b0681039050610bf28282611356565b5050565b6000809054906101000a900473ffffffffffffffffffffffffffffffffffffffff1681565b60028381600482815481101515610c2e57fe5b906000526020600020906003020160020160009054906101000a900463ffffffff1663ffffffff1610151515610c6357600080fd5b846005600082815260200190815260200160002060009054906101000a900473ffffffffffffffffffffffffffffffffffffffff1673ffffffffffffffffffffffffffffffffffffffff163373ffffffffffffffffffffffffffffffffffffffff16141515610cd157600080fd5b8484600488815481101515610ce257fe5b90600052602060002090600302016000019190610d009291906116d0565b50505050505050565b6000809054906101000a900473ffffffffffffffffffffffffffffffffffffffff1673ffffffffffffffffffffffffffffffffffffffff163373ffffffffffffffffffffffffffffffffffffffff16141515610d6457600080fd5b8060088190555050565b6000806000846005600082815260200190815260200160002060009054906101000a900473ffffffffffffffffffffffffffffffffffffffff1673ffffffffffffffffffffffffffffffffffffffff163373ffffffffffffffffffffffffffffffffffffffff16141515610de157600080fd5b600486815481101515610df057fe5b90600052602060002090600302019350600485815481101515610e0f57fe5b90600052602060002090600302019250610e2960646115de565b9150600a5482111515610f2a5783600201600881819054906101000a900461ffff168092919060010191906101000a81548161ffff021916908361ffff1602179055505083600201600081819054906101000a900463ffffffff168092919060010191906101000a81548163ffffffff021916908363ffffffff1602179055505082600201600a81819054906101000a900461ffff168092919060010191906101000a81548161ffff021916908361ffff16021790555050610f258684600101546040805190810160405280600681526020017f7a6f6d62696500000000000000000000000000000000000000000000000000008152506110ff565b610fa2565b83600201600a81819054906101000a900461ffff168092919060010191906101000a81548161ffff021916908361ffff1602179055505082600201600881819054906101000a900461ffff168092919060010191906101000a81548161ffff021916908361ffff16021790555050610fa18461166b565b5b505050505050565b6000809054906101000a900473ffffffffffffffffffffffffffffffffffffffff1673ffffffffffffffffffffffffffffffffffffffff163373ffffffffffffffffffffffffffffffffffffffff1614151561100557600080fd5b600073ffffffffffffffffffffffffffffffffffffffff168173ffffffffffffffffffffffffffffffffffffffff161415151561104157600080fd5b8073ffffffffffffffffffffffffffffffffffffffff166000809054906101000a900473ffffffffffffffffffffffffffffffffffffffff1673ffffffffffffffffffffffffffffffffffffffff167f8be0079c531659141344cd1fd0a4f28419497f9722a3daafe3b4186f6b6457e060405160405180910390a3806000806101000a81548173ffffffffffffffffffffffffffffffffffffffff021916908373ffffffffffffffffffffffffffffffffffffffff16021790555050565b600080846005600082815260200190815260200160002060009054906101000a900473ffffffffffffffffffffffffffffffffffffffff1673ffffffffffffffffffffffffffffffffffffffff163373ffffffffffffffffffffffffffffffffffffffff1614151561117057600080fd5b60048681548110151561117f57fe5b9060005260206000209060030201925061119883611695565b15156111a357600080fd5b600254858115156111b057fe5b0694506002858460010154018115156111c557fe5b04915060405180807f6b697474790000000000000000000000000000000000000000000000000000008152506005019050604051809103902060001916846040518082805190602001908083835b6020831015156112385780518252602082019150602081019050602083039250611213565b6001836020036101000a038019825116818451168082178552505050505050905001915050604051809103902060001916141561128457606360648381151561127d57fe5b0683030191505b6112c36040805190810160405280600681526020017f4e6f4e616d65000000000000000000000000000000000000000000000000000081525083611356565b6112cc8361166b565b505050505050565b600080826040518082805190602001908083835b60208310151561130d57805182526020820191506020810190506020830392506112e8565b6001836020036101000a03801982511681845116808217855250505050505090500191505060405180910390206001900490506002548181151561134d57fe5b06915050919050565b600060016004805480600101828161136e9190611750565b9160005260206000209060030201600060c060405190810160405280888152602001878152602001600163ffffffff168152602001600354420163ffffffff168152602001600061ffff168152602001600061ffff16815250909190915060008201518160000190805190602001906113e8929190611782565b506020820151816001015560408201518160020160006101000a81548163ffffffff021916908363ffffffff16021790555060608201518160020160046101000a81548163ffffffff021916908363ffffffff16021790555060808201518160020160086101000a81548161ffff021916908361ffff16021790555060a082015181600201600a6101000a81548161ffff021916908361ffff1602179055505050039050336005600083815260200190815260200160002060006101000a81548173ffffffffffffffffffffffffffffffffffffffff021916908373ffffffffffffffffffffffffffffffffffffffff160217905550600660003373ffffffffffffffffffffffffffffffffffffffff1673ffffffffffffffffffffffffffffffffffffffff168152602001908152602001600020600081548092919060010191905055507f88f026aacbbecc90c18411df4b1185fd8d9be2470f1962f192bf84a27d0704b78184846040518084815260200180602001838152602001828103825284818151815260200191508051906020019080838360005b8381101561159d578082015181840152602081019050611582565b50505050905090810190601f1680156115ca5780820380516001836020036101000a031916815260200191505b5094505050505060405180910390a1505050565b6000600960008154809291906001019190505550814233600954604051808481526020018373ffffffffffffffffffffffffffffffffffffffff1673ffffffffffffffffffffffffffffffffffffffff166c01000000000000000000000000028152601401828152602001935050505060405180910390206001900481151561166357fe5b069050919050565b60035442018160020160046101000a81548163ffffffff021916908363ffffffff16021790555050565b6000428260020160049054906101000a900463ffffffff1663ffffffff1611159050919050565b602060405190810160405280600081525090565b828054600181600116156101000203166002900490600052602060002090601f016020900481019282601f1061171157803560ff191683800117855561173f565b8280016001018555821561173f579182015b8281111561173e578235825591602001919060010190611723565b5b50905061174c9190611802565b5090565b81548183558181151161177d5760030281600302836000526020600020918201910161177c9190611827565b5b505050565b828054600181600116156101000203166002900490600052602060002090601f016020900481019282601f106117c357805160ff19168380011785556117f1565b828001600101855582156117f1579182015b828111156117f05782518255916020019190600101906117d5565b5b5090506117fe9190611802565b5090565b61182491905b80821115611820576000816000905550600101611808565b5090565b90565b6118b391905b808211156118af576000808201600061184691906118b6565b60018201600090556002820160006101000a81549063ffffffff02191690556002820160046101000a81549063ffffffff02191690556002820160086101000a81549061ffff021916905560028201600a6101000a81549061ffff02191690555060030161182d565b5090565b90565b50805460018160011615610100020316600290046000825580601f106118dc57506118fb565b601f0160209004906000526020600020908101906118fa9190611802565b5b505600a165627a7a723058204f490b8a7838dc60cf1b82f057089cc2e0331bef435bd640ad63f3fd85a8b7bd0029",
  "source": "pragma solidity ^0.4.19;\n\nimport \"./zombiehelper.sol\";\n\ncontract ZombieAttack is ZombieHelper {\n  uint randNonce = 0;\n  uint attackVictoryProbability = 70;\n\n  function randMod(uint _modulus) internal returns(uint) {\n    randNonce++;\n    return uint(keccak256(now, msg.sender, randNonce)) % _modulus;\n  }\n\n  function attack(uint _zombieId, uint _targetId) external onlyOwnerOf(_zombieId) {\n    Zombie storage myZombie = zombies[_zombieId];\n    Zombie storage enemyZombie = zombies[_targetId];\n    uint rand = randMod(100);\n    if (rand <= attackVictoryProbability) {\n      myZombie.winCount++;\n      myZombie.level++;\n      enemyZombie.lossCount++;\n      feedAndMultiply(_zombieId, enemyZombie.dna, \"zombie\");\n    } else {\n      myZombie.lossCount++;\n      enemyZombie.winCount++;\n      _triggerCooldown(myZombie);\n    }\n  }\n}\n",
  "sourcePath": "/Users/blake/Documents/Development/ethereum/cryptoZombiesOriginal/contracts/zombieattack.sol",
  "compiler": {
    "name": "solc",
    "version": "0.4.21+commit.dfe3193c.Emscripten.clang"
  },
  "schemaVersion": "2.0.0",
  "updatedAt": "2018-04-19T20:33:23.511Z"
}